:100000000C9462000C948A000C948A000C948A0070
:100010000C948A000C948A000C948A000C948A0038
:100020000C948A000C948A000C948A000C948A0028
:100030000C948A000C948A000C948A000C948A0018
:100040000C942F030C948A000C948A000C948A0060
:100050000C948A000C948A000C948A000C948A00F8
:100060000C948A000C948A000000000024002700F1
:100070002A0000000000250028002B0000000000DE
:1000800023002600290004040404040404040202DA
:100090000202020203030303030301020408102007
:1000A0004080010204081020010204081020000012
:1000B0000008000201000003040700000000000027
:1000C00000003E0411241FBECFEFD8E0DEBFCDBF3D
:1000D00011E0A0E0B1E0E8ECF8E002C005900D927C
:1000E000A432B107D9F721E0A4E2B1E001C01D922A
:1000F000A534B207E1F710E0C2E6D0E004C02197D2
:10010000FE010E945C04C136D107C9F70E94790341
:100110000C9462040C940000AF92BF92CF92DF92D5
:10012000EF92FF920F931F93CF93DF936C017B01AC
:100130008B01040F151FEB015E01AE18BF08C0173D
:10014000D10759F06991D601ED91FC910190F081B0
:10015000E02DC6010995892B79F7C501DF91CF9173
:100160001F910F91FF90EF90DF90CF90BF90AF90D5
:100170000895833081F028F4813099F08230A9F01D
:1001800008958730A9F08830C9F08430B1F48091A7
:1001900080008F7D03C0809180008F7780938000E6
:1001A000089584B58F7784BD089584B58F7DFBCF86
:1001B0008091B0008F778093B00008958091B00057
:1001C0008F7DF9CFCF93DF93282F30E0F901E255EF
:1001D000FF4F8491F901E656FF4FD491F901EA5798
:1001E000FF4FC491CC23A1F081110E94B900EC2FE4
:1001F000F0E0EE0FFF1FE458FF4FA591B491EC9192
:10020000ED2381E090E009F480E0DF91CF91089543
:1002100080E090E0FACF1F93CF93DF93282F30E058
:10022000F901E255FF4F8491F901E656FF4FD49151
:10023000F901EA57FF4FC491CC23A9F0162F811181
:100240000E94B900EC2FF0E0EE0FFF1FEE58FF4FB9
:10025000A591B4918FB7F894EC91111108C0D09585
:10026000DE23DC938FBFDF91CF911F910895DE2BAA
:10027000F8CFCF93DF9390E0FC01E656FF4F249137
:100280008A579F4FFC0184918823D1F090E0880F1A
:10029000991FFC01E859FF4FA591B491FC01EE585C
:1002A000FF4FC591D49161110EC09FB7F8948C9106
:1002B000E22FE0958E238C932881E223E8839FBF71
:1002C000DF91CF9108958FB7F894EC91E22BEC93E6
:1002D0008FBFF6CF3FB7F8948091290190912A0102
:1002E000A0912B01B0912C0126B5A89B05C02F3FF2
:1002F00019F00196A11DB11D3FBFBA2FA92F982F4C
:100300008827BC01CD01620F711D811D911D42E046
:10031000660F771F881F991F4A95D1F708958F920E
:100320009F92AF92BF92CF92DF92EF92FF920E9484
:100330006A014B015C0188EEC82E83E0D82EE12CC7
:10034000F12C0E946A01681979098A099B09683EA3
:10035000734081059105A8F321E0C21AD108E10894
:10036000F10888EE880E83E0981EA11CB11CC11410
:10037000D104E104F10429F7FF90EF90DF90CF90D2
:10038000BF90AF909F908F900895089590E080E087
:100390000895FC0101900020E9F73197AF01481B57
:1003A000590BBC018DE291E00C948C00CF93DF934C
:1003B000EC0160E08E810E940B0161E08E810E9461
:1003C0000B0160E08E810E940B018BE891E00197A8
:1003D000F1F7DF91CF910895CF92DF92EF92FF92E4
:1003E0000F931F93CF93DF936C017C0187E0E80E9E
:1003F000F11CD0E0C0E0062F10E0B8010C2E02C0C6
:10040000759567950A94E2F76170F70181917F0114
:100410000E940B012196C430D10579F7C601DF9106
:10042000CF911F910F91FF90EF90DF90CF900C94A0
:10043000D601CF92DF92EF92FF920F931F93CF934B
:10044000DF93EC01F62E642F8C810E940B018D81CD
:100450008F3F19F060E00E940B010F2D10E08F8597
:1004600084FF25C06E0187E0C80ED11CF12CE12C61
:10047000B8010E2C02C0759567950A94E2F7617079
:10048000F60181916F010E940B01FFEFEF1AFF0A45
:1004900088E0E816F10461F7CE01DF91CF911F915A
:1004A0000F91FF90EF90DF90CF900C94D601B801A0
:1004B00084E0759567958A95E1F7CE010E94EC017D
:1004C0006F2DCE01DF91CF911F910F91FF90EF9093
:1004D000DF90CF900C94EC0140E0682F8DE291E02A
:1004E0000C94190281E00E946C028BE39FE101975A
:1004F000F1F70895CF93DF93823029F490913C0176
:10050000986090933C01809340011092410180E4F7
:100510008093420180E18093430180E58093440110
:1005200061E0809131010E943901809132018F3F59
:1005300019F061E00E94390161E0809133010E946D
:100540003901CDE2D1E09E012D52314080913C0134
:1005500084FD0BC084E090E021962817390744F40D
:1005600061E08E810E943901EECF88E090E0F4CF07
:100570008BE39DE00197F1F760E0809131010E94EB
:100580000B0160E0809133010E940B0180913201E8
:100590008F3F19F060E00E940B0180913C0184FDC7
:1005A00034C063E08DE291E00E94EC01CBE4D6E43C
:1005B000CE010197F1F763E08DE291E00E94EC013A
:1005C0002197F1F763E08DE291E00E94EC0183E571
:1005D00092E00197F1F762E08DE291E00E94EC0178
:1005E00080913C0180620E946C0284E080933D0116
:1005F0008CE00E946C020E94720282E080933E01B5
:1006000086E0DF91CF910C946C0280620E946C02B4
:100610008BE496E40197F1F780913C0180620E949F
:100620006C0283E592E00197F1F780913C018062D2
:100630000E946C02D5CF90914001891710F08FEF86
:10064000890FE82FF0E0E35DFE4F848980680C9409
:100650006C0241E00E94190281E090E008951F922F
:100660000F920FB60F9211242F933F938F939F9366
:10067000AF93BF938091250190912601A09127010E
:10068000B09128013091240123E0230F2D3758F534
:100690000196A11DB11D2093240180932501909303
:1006A0002601A0932701B093280180912901909100
:1006B0002A01A0912B01B0912C010196A11DB11D21
:1006C0008093290190932A01A0932B01B0932C01D0
:1006D000BF91AF919F918F913F912F910F900FBE3E
:1006E0000F901F90189526E8230F0296A11DB11DAB
:1006F000D2CF789484B5826084BD84B5816084BD96
:1007000085B5826085BD85B5816085BD80916E00AF
:10071000816080936E0010928100809181008260E0
:10072000809381008091810081608093810080911D
:1007300080008160809380008091B100846080930C
:10074000B1008091B00081608093B00080917A0008
:10075000846080937A0080917A00826080937A002E
:1007600080917A00816080937A0080917A0080681D
:1007700080937A001092C10082E00E947A0261E0C8
:100780008DE00E94390161E08CE00E94390161E056
:1007900089E00E94390161E088E00E94390160E04F
:1007A0008AE00E94390160E08BE00E943901C0E0DC
:1007B000D0E08BE00E94E2007C018AE00E94E2002F
:1007C0008C01EA94EF2811F561E08DE00E940B01A5
:1007D00060E08CE00E940B0160E089E00E940B0168
:1007E00061E088E00E940B0180E00E941B038CE026
:1007F00091E00E94C90181E00E941B0386E191E023
:100800000E94C9010E948F010E94720201301105ED
:1008100041F560E08DE00E940B0161E08CE00E94F8
:100820000B0161E089E00E940B0160E088E00E941A
:100830000B0180E00E941B038CE091E00E94C90143
:1008400081E00E941B0382E191E00E94C9010E94A5
:100850008F010E947202209709F4ABCF0E94000022
:10086000A8CF80E00E941B038CE091E00E94C901A8
:1008700081E00E941B0380E291E0E7CFEDE2F1E02E
:100880001382128284E091E09183808387E08483E5
:100890008FEF858386E0868385E0878384E0808789
:1008A00083E0818782E08287138614861586168608
:1008B000178681E00C947A02EE0FFF1F0590F491E9
:0808C000E02D0994F894FFCF2C
:1008C8000000000029038C00C601C5014D31204DF0
:1008D8003200414E5449434C4F434B57495345000E
:0408E8004F46460031
:00000001FF
