:020000040000FA
:100000000C945D000C9485000C9485000C94850084
:100010000C9485000C9485000C9485000C9485004C
:100020000C9485000C9485000C9485000C9485003C
:100030000C9485000C9485000C9485000C9485002C
:100040000C946E030C9485000C9485000C94850030
:100050000C9485000C9485000C9485000C9485000C
:100060000C9485000C9485000000000024002700FB
:100070002A0000000000250028002B0004040404CE
:100080000404040402020202020203030303030342
:10009000010204081020408001020408102001021F
:1000A00004081020000000080002010000030407FB
:1000B0000000000000000000020511241FBECFEF69
:1000C000D8E0DEBFCDBF11E0A0E0B1E0E6EFFCE09C
:1000D00002C005900D92A833B107D9F721E0A8E33B
:1000E000B1E001C01D92A935B207E1F710E0CDE5FE
:1000F000D0E004C02197FE010E947306CC35D107E1
:10010000C9F70E94B8030C9479060C940000AF92D2
:10011000BF92CF92DF92EF92FF920F931F93CF93F4
:10012000DF936C017B018B01040F151FEB015E0156
:10013000AE18BF08C017D10759F06991D601ED91EB
:10014000FC910190F081E02DC6010995892B79F78A
:10015000C501DF91CF911F910F91FF90EF90DF903C
:10016000CF90BF90AF90089590E0FC01EC55FF4F09
:100170002491FC01E057FF4F3491FC01E458FF4FFC
:10018000E491EE23C9F0222339F0233001F1A8F4E1
:10019000213019F1223029F1F0E0EE0FFF1FEE5867
:1001A000FF4FA591B4918FB7F894EC91611126C0DF
:1001B00030953E233C938FBF08952730A9F0283017
:1001C000C9F0243049F7809180008F7D03C0809171
:1001D00080008F7780938000DFCF84B58F7784BDD8
:1001E000DBCF84B58F7DFBCF8091B0008F7780937C
:1001F000B000D2CF8091B0008F7DF9CF3E2BDACF07
:10020000CF93DF9390E0FC01E057FF4F2491845897
:100210009F4FFC0184918823D1F090E0880F991FB3
:10022000FC01E859FF4FA591B491FC01EE58FF4F36
:10023000C591D49161110EC09FB7F8948C91E22FB3
:10024000E0958E238C932881E223E8839FBFDF9182
:10025000CF9108958FB7F894EC91E22BEC938FBF78
:10026000F6CF3FB7F89480913D0190913E01A09167
:100270003F01B091400126B5A89B05C02F3F19F062
:100280000196A11DB11D3FBFBA2FA92F982F882716
:10029000BC01CD01620F711D811D911D42E0660FF1
:1002A000771F881F991F4A95D1F708958F929F92C3
:1002B000AF92BF92CF92DF92EF92FF920E943101F4
:1002C0004B015C0188EEC82E83E0D82EE12CF12C86
:1002D0000E943101681979098A099B09683E7340B7
:1002E00081059105A8F321E0C21AD108E108F108BF
:1002F00088EE880E83E0981EA11CB11CC114D104A5
:10030000E104F10429F7FF90EF90DF90CF90BF90C8
:10031000AF909F908F900895089590E080E00895A9
:100320008F929F92AF92BF920F931F93CF93DF93C1
:10033000CDB7DEB7A1970FB6F894DEBF0FBECDBF25
:1003400019A2423008F44AE08E010F5D1F4F842E3F
:10035000912CB12CA12CA50194010E945106E62FED
:10036000B901CA01EA3044F5E05DD801EE938D0190
:10037000232B242B252B79F790E080E0109769F050
:10038000FD0101900020E9F73197AF014A1B5B0B9B
:10039000BD0181E491E00E948700A1960FB6F89418
:1003A000DEBF0FBECDBFDF91CF911F910F91BF90E8
:1003B000AF909F908F900895E95CD7CFFC0101909A
:1003C0000020E9F73197AF01481B590BBC0181E4CC
:1003D00091E00C948700CF93DF93EC0160E08E8175
:1003E0000E94B40061E08E810E94B40060E08E81C2
:1003F0000E94B4008BE891E00197F1F7DF91CF9173
:100400000895CF92DF92EF92FF920F931F93CF93B5
:10041000DF936C017C0187E0E80EF11CD0E0C0E0C6
:10042000062F10E0B8010C2E02C0759567950A944E
:10043000E2F76170F70181917F010E94B40021967B
:10044000C430D10579F7C601DF91CF911F910F918B
:10045000FF90EF90DF90CF900C94EB01CF92DF9262
:10046000EF92FF920F931F93CF93DF93EC01F62E41
:10047000642F8C810E94B4008D818F3F19F060E061
:100480000E94B4000F2D10E08F8584FF25C06E01FF
:1004900087E0C80ED11CF12CE12CB8010E2C02C053
:1004A000759567950A94E2F76170F60181916F0185
:1004B0000E94B400FFEFEF1AFF0A88E0E816F1048B
:1004C00061F7CE01DF91CF911F910F91FF90EF90D7
:1004D000DF90CF900C94EB01B80184E0759567959F
:1004E0008A95E1F7CE010E9401026F2DCE01DF91C6
:1004F000CF911F910F91FF90EF90DF90CF900C94D0
:10050000010240E0682F81E491E00C942E0281E02A
:100510000E9481028BE39FE10197F1F70895CF9349
:10052000DF93823029F490915001986090935001AC
:10053000809354011092550180E48093560180E12C
:100540008093570180E58093580161E080914501D7
:100550000E940001809146018F3F19F061E00E94E6
:10056000000161E0809147010E940001C1E4D1E0F7
:100570009E01215431408091500184FD0BC084E0E4
:1005800090E021962817390744F461E08E810E949B
:100590000001EECF88E090E0F4CF8BE39DE001977F
:1005A000F1F760E0809145010E94B40060E0809125
:1005B00047010E94B400809146018F3F19F060E02E
:1005C0000E94B4008091500184FD34C063E081E456
:1005D00091E00E940102CBE4D6E4CE010197F1F74D
:1005E00063E081E491E00E9401022197F1F763E06A
:1005F00081E491E00E94010283E592E00197F1F726
:1006000062E081E491E00E940102809150018062E9
:100610000E94810284E0809351018CE00E9481025B
:100620000E94870282E08093520186E0DF91CF91A1
:100630000C94810280620E9481028BE496E401970F
:10064000F1F78091500180620E94810283E592E07F
:100650000197F1F78091500180620E948102D5CF0D
:1006600090915401691710F06FEF690FE62FF0E0D9
:10067000EF5BFE4F9489890F80680C94810241E002
:100680000E942E0281E090E00895CF92DF92EF92D7
:10069000FF926C01990FEE08FF08F7FE16C041E0CB
:1006A0006DE281E491E00E942E0266277727CB015C
:1006B0006C197D098E099F094AE00E9490010196FC
:1006C000FF90EF90DF90CF9008954AE0C701B60108
:1006D000FF90EF90DF90CF900C9490011F920F92BB
:1006E0000FB60F9211242F933F938F939F93AF9345
:1006F000BF938091390190913A01A0913B01B09153
:100700003C013091380123E0230F2D3758F5019635
:10071000A11DB11D209338018093390190933A01B6
:10072000A0933B01B0933C0180913D0190913E012B
:10073000A0913F01B09140010196A11DB11D809390
:100740003D0190933E01A0933F01B0934001BF91C2
:10075000AF919F918F913F912F910F900FBE0F906E
:100760001F90189526E8230F0296A11DB11DD2CF28
:10077000789484B5826084BD84B5816084BD85B57C
:10078000826085BD85B5816085BD80916E00816088
:1007900080936E001092810080918100826080932E
:1007A0008100809181008160809381008091800030
:1007B0008160809380008091B10084608093B1005B
:1007C0008091B00081608093B00080917A00846055
:1007D00080937A0080917A00826080937A00809181
:1007E0007A00816080937A0080917A00806880939B
:1007F0007A001092C10082E00E948F0261E087E0DF
:100800000E94000161E086E00E94000161E085E055
:100810000E94000161E084E00E94000161E083E049
:100820000E94000161E082E00E94000161E081E03D
:100830000E94000160E08EE00E94000110E4C0E030
:10084000D0E010937C0080917A00806480937A00DD
:1008500080917A0086FDFCCF8091780060917900CC
:10086000762F682F072E000C880B990B0E945805D5
:100870002FE832EC45EF5EE30E94BC050E942005A4
:100880006B018EE1C816D1040CF045C061E083E035
:100890000E94B40060E082E00E94B40060E081E069
:1008A0000E94B40060E087E00E94B40060E086E04F
:1008B0000E94B40060E085E00E94B40060E084E043
:1008C0000E94B40060E080E00E9430038CE091E080
:1008D0000E94DE0160E08DE00E943003C6010E94AC
:1008E000450361E080E00E94300389E191E00E94CD
:1008F000DE0161E085E00E9430038DE191E00E941D
:10090000DE010E9456010E948702209709F499CFC8
:100910000E94000096CFC6014E9760E00B97C8F585
:1009200083E00E94B40061E082E00E94B40060E0D5
:1009300081E00E94B40060E087E00E94B40061E0C2
:1009400086E00E94B40060E085E00E94B40061E0AF
:1009500084E00E94B40060E080E00E9430038CE0FC
:1009600091E00E94DE0160E08DE00E943003C6014C
:100970000E94450361E080E00E94300381E291E043
:100980000E94DE0161E088E00E94300388E291E08D
:10099000B6CF83E00E94B40060E082E00E94B40021
:1009A00061E081E00E94B40061E087E00E94B40051
:1009B00060E086E00E94B40061E085E00E94B4003F
:1009C00060E084E00E94B40060E080E00E943003B8
:1009D0008CE091E00E94DE0160E08DE00E94300337
:1009E000C6010E94450361E080E00E9430038DE271
:1009F00091E00E94DE0161E086E00E94300382E324
:100A000091E07DCFE1E4F1E01382128284E091E095
:100A1000918380838DE084838FEF85838CE0868350
:100A200088E0878389E080878AE081878BE08287FE
:100A30001386148615861686178681E00C948F021D
:100A40000E9427056894B1110C94B60508950E9480
:100A50009B0588F09F5798F0B92F9927B751B0F0B0
:100A6000E1F0660F771F881F991F1AF0BA95C9F732
:100A700014C0B13091F00E94B505B1E008950C9416
:100A8000B505672F782F8827B85F39F0B93FCCF3C9
:100A9000869577956795B395D9F73EF490958095AF
:100AA000709561957F4F8F4F9F4F0895E89409C0CF
:100AB00097FB3EF490958095709561957F4F8F4F91
:100AC0009F4F9923A9F0F92F96E9BB279395F695A7
:100AD000879577956795B795F111F8CFFAF4BB0F25
:100AE00011F460FF1BC06F5F7F4F8F4F9F4F16C089
:100AF000882311F096E911C0772321F09EE8872F13
:100B0000762F05C0662371F096E8862F70E060E0CE
:100B10002AF09A95660F771F881FDAF7880F969547
:100B2000879597F9089557FD9058440F551F59F030
:100B30005F3F71F04795880F97FB991F61F09F3FCA
:100B400079F087950895121613061406551FF2CFF3
:100B50004695F1DF08C0161617061806991FF1CF43
:100B600086957105610508940895E894BB2766276A
:100B70007727CB0197F908950E94CF050C94400682
:100B80000E94320638F00E94390620F0952311F0B9
:100B90000C9429060C942F0611240C94B6050E947F
:100BA000930570F3959FC1F3950F50E0551F629F19
:100BB000F001729FBB27F00DB11D639FAA27F00DB6
:100BC000B11DAA1F649F6627B00DA11D661F829FDD
:100BD0002227B00DA11D621F739FB00DA11D621FC2
:100BE000839FA00D611D221F749F3327A00D611DDF
:100BF000231F849F600D211D822F762F6A2F1124C1
:100C00009F5750409AF0F1F088234AF0EE0FFF1FF3
:100C1000BB1F661F771F881F91505040A9F79E3F4A
:100C2000510580F00C9429060C94B6055F3FE4F35F
:100C3000983ED4F3869577956795B795F795E795A0
:100C40009F5FC1F7FE2B880F911D9695879597F9A9
:100C5000089597F99F6780E870E060E008959FEF3E
:100C600080EC089500240A94161617061806090643
:100C7000089500240A941216130614060506089512
:100C8000092E0394000C11F4882352F0BB0F40F49A
:100C9000BF2B11F460FF04C06F5F7F4F8F4F9F4FDA
:100CA0000895A1E21A2EAA1BBB1BFD010DC0AA1FAD
:100CB000BB1FEE1FFF1FA217B307E407F50720F0C5
:100CC000A21BB30BE40BF50B661F771F881F991F40
:100CD0001A9469F760957095809590959B01AC0189
:100CE000BD01CF010895EE0FFF1F0590F491E02D97
:100CF0000994F894FFCF000000003F0387008D01A6
:100D00008C0154656D70657261747572653A004C42
:100D10004F57006F6666004E4F524D414C00616E5A
:0E0D20007469004849474800636C6F636B00BC
:107E0000112484B714BE81FFF0D085E080938100F7
:107E100082E08093C00088E18093C10086E0809377
:107E2000C20080E18093C4008EE0C9D0259A86E02C
:107E300020E33CEF91E0309385002093840096BBD3
:107E4000B09BFECF1D9AA8958150A9F7CC24DD24C4
:107E500088248394B5E0AB2EA1E19A2EF3E0BF2EE7
:107E6000A2D0813461F49FD0082FAFD0023811F036
:107E7000013811F484E001C083E08DD089C08234E0
:107E800011F484E103C0853419F485E0A6D080C0E4
:107E9000853579F488D0E82EFF2485D0082F10E0AE
:107EA000102F00270E291F29000F111F8ED06801E7
:107EB0006FC0863521F484E090D080E0DECF843638
:107EC00009F040C070D06FD0082F6DD080E0C81688
:107ED00080E7D80618F4F601B7BEE895C0E0D1E017
:107EE00062D089930C17E1F7F0E0CF16F0E7DF06D8
:107EF00018F0F601B7BEE89568D007B600FCFDCFD4
:107F0000A601A0E0B1E02C9130E011968C91119780
:107F100090E0982F8827822B932B1296FA010C0160
:107F200087BEE89511244E5F5F4FF1E0A038BF0790
:107F300051F7F601A7BEE89507B600FCFDCF97BE46
:107F4000E89526C08437B1F42ED02DD0F82E2BD052
:107F50003CD0F601EF2C8F010F5F1F4F84911BD097
:107F6000EA94F801C1F70894C11CD11CFA94CF0C13
:107F7000D11C0EC0853739F428D08EE10CD085E9AC
:107F80000AD08FE07ACF813511F488E018D01DD067
:107F900080E101D065CF982F8091C00085FFFCCF94
:107FA0009093C60008958091C00087FFFCCF809118
:107FB000C00084FD01C0A8958091C6000895E0E648
:107FC000F0E098E1908380830895EDDF803219F02E
:107FD00088E0F5DFFFCF84E1DECF1F93182FE3DFCA
:107FE0001150E9F7F2DF1F91089580E0E8DFEE27F6
:047FF000FF270994CA
:027FFE00040479
:00000001FF
