:100000000C945D000C9485000C9485000C94850084
:100010000C9485000C9485000C9485000C9485004C
:100020000C9485000C9485000C9485000C9485003C
:100030000C9485000C9485000C9485000C9485002C
:100040000C94CE040C9485000C949C040C947604BF
:100050000C9485000C9485000C9485000C9485000C
:100060000C9485000C9485000000000024002700FB
:100070002A0000000000250028002B0004040404CE
:100080000404040402020202020203030303030342
:10009000010204081020408001020408102001021F
:1000A00004081020000000080002010000030407FB
:1000B0000000000000000000180511241FBECFEF53
:1000C000D8E0DEBFCDBF11E0A0E0B1E0E8EEFDE09A
:1000D00002C005900D92A236B107D9F722E0A2E640
:1000E000B1E001C01D92A032B207E1F710E0CDE50A
:1000F000D0E004C02197FE010E94EC06CC35D10768
:10010000C9F70E9462050C94F2060C940000AF92AD
:10011000BF92CF92DF92EF92FF920F931F93CF93F4
:10012000DF936C017B018B01040F151FEB015E0156
:10013000AE18BF08C017D10759F06991D601ED91EB
:10014000FC910190F081E02DC6010995892B79F78A
:10015000C501DF91CF911F910F91FF90EF90DF903C
:10016000CF90BF90AF900895FC01538D448D252F03
:1001700030E0842F90E0821B930B541710F0CF9641
:10018000089501970895FC01918D828D981761F073
:10019000A28DAE0FBF2FB11D5D968C91928D9F5F8A
:1001A0009F73928F90E008958FEF9FEF0895FC0169
:1001B000918D828D981731F0828DE80FF11D858D1C
:1001C00090E008958FEF9FEF0895FC01918D228DAF
:1001D000892F90E0805C9F4F821B91098F73992734
:1001E00008958BE691E00E94E50021E0892B09F457
:1001F00020E0822F089580E090E0892B29F00E9472
:10020000F10081110C9400000895FC01A48DA80F49
:10021000B92FB11DA35ABF4F2C91848D90E0019648
:100220008F739927848FA689B7892C93A089B18968
:100230008C91837080648C93938D848D981306C009
:100240000288F389E02D80818F7D80830895EF926D
:10025000FF920F931F93CF93DF93EC0181E0888F80
:100260009B8D8C8D98131AC0E889F989808185FF50
:1002700015C09FB7F894EE89FF896083E889F989F2
:1002800080818370806480839FBF81E090E0DF91F4
:10029000CF911F910F91FF90EF900895F62E0B8D47
:1002A00010E00F5F1F4F0F731127E02E8C8D8E1102
:1002B0000CC00FB607FCFACFE889F989808185FF69
:1002C000F5CFCE010E940501F1CFEB8DEC0FFD2F94
:1002D000F11DE35AFF4FF0829FB7F8940B8FEA8924
:1002E000FB8980818062CFCFCF93DF93EC01888D33
:1002F0008823B9F0AA89BB89E889F9898C9185FDA1
:1003000003C0808186FD0DC00FB607FCF7CF8C912E
:1003100085FFF2CF808185FFEDCFCE010E940501E0
:10032000E9CFDF91CF91089590E0FC01EC55FF4FAC
:100330002491FC01E057FF4F3491FC01E458FF4F3A
:10034000E491EE23C9F0222339F0233001F1A8F41F
:10035000213019F1223029F1F0E0EE0FFF1FEE58A5
:10036000FF4FA591B4918FB7F894EC91611126C01D
:1003700030953E233C938FBF08952730A9F0283055
:10038000C9F0243049F7809180008F7D03C08091AF
:1003900080008F7780938000DFCF84B58F7784BD16
:1003A000DBCF84B58F7DFBCF8091B0008F778093BA
:1003B000B000D2CF8091B0008F7DF9CF3E2BDACF45
:1003C000CF93DF9390E0FC01E057FF4F24918458D6
:1003D0009F4FFC0184918823D1F090E0880F991FF2
:1003E000FC01E859FF4FA591B491FC01EE58FF4F75
:1003F000C591D49161110EC09FB7F8948C91E22FF2
:10040000E0958E238C932881E223E8839FBFDF91C0
:10041000CF9108958FB7F894EC91E22BEC938FBFB6
:10042000F6CF3FB7F8948091670190916801A09151
:100430006901B0916A0126B5A89B05C02F3F19F04C
:100440000196A11DB11D3FBFBA2FA92F982F882754
:10045000BC01CD01620F711D811D911D42E0660F2F
:10046000771F881F991F4A95D1F708958F929F9201
:10047000AF92BF92CF92DF92EF92FF920E94110251
:100480004B015C0188EEC82E83E0D82EE12CF12CC4
:100490000E941102681979098A099B09683E734014
:1004A00081059105A8F321E0C21AD108E108F108FD
:1004B00088EE880E83E0981EA11CB11CC114D104E3
:1004C000E104F10429F7FF90EF90DF90CF90BF9007
:1004D000AF909F908F900895089590E080E00895E8
:1004E000CF93DF93EC0160E08E810E94940161E084
:1004F0008E810E94940160E08E810E9494018BE8BD
:1005000091E00197F1F7DF91CF910895CF92DF92BB
:10051000EF92FF920F931F93CF93DF936C017C01B7
:1005200087E0E80EF11CD0E0C0E0062F10E0B80133
:100530000C2E02C0759567950A94E2F76170F70179
:1005400081917F010E9494012196C430D10579F7F1
:10055000C601DF91CF911F910F91FF90EF90DF9037
:10056000CF900C947002CF92DF92EF92FF920F9394
:100570001F93CF93DF93EC01F62E642F8C810E94A2
:1005800094018D818F3F19F060E00E9494010F2D3E
:1005900010E08F8584FF25C06E0187E0C80ED11C56
:1005A000F12CE12CB8010E2C02C0759567950A94C8
:1005B000E2F76170F60181916F010E949401FFEFF3
:1005C000EF1AFF0A88E0E816F10461F7CE01DF9127
:1005D000CF911F910F91FF90EF90DF90CF900C94EF
:1005E0007002B80184E0759567958A95E1F7CE01B0
:1005F0000E9486026F2DCE01DF91CF911F910F9146
:10060000FF90EF90DF90CF900C94860240E0682F2F
:1006100088E092E00C94B30281E00E9406038BE331
:100620009FE10197F1F70895CF93DF93813029F08F
:100630009091170298609093170280931B0210927A
:100640001C0280E480931D0280E180931E0280E5FD
:1006500080931F0261E080910C020E94E001809172
:100660000D028F3F19F061E00E94E00161E080918E
:100670000E020E94E001C8E0D2E09E012850324004
:100680008091170284FD0BC084E090E0219628172A
:10069000390744F461E08E810E94E001EECF88E0EA
:1006A00090E0F4CF8BE39DE00197F1F760E080915B
:1006B0000C020E94940160E080910E020E9494015D
:1006C00080910D028F3F19F060E00E9494018091AB
:1006D000170284FD34C063E088E092E00E94860245
:1006E000CBE4D6E4CE010197F1F763E088E092E035
:1006F0000E9486022197F1F763E088E092E00E9471
:10070000860283E592E00197F1F762E088E092E0EB
:100710000E9486028091170280620E94060384E094
:10072000809318028CE00E9406030E940C0382E072
:100730008093190286E0DF91CF910C9406038062CA
:100740000E9406038BE496E40197F1F7809117026B
:1007500080620E94060383E592E00197F1F78091A1
:10076000170280620E940603D5CF90911B02691781
:1007700010F06FEF690FE62FF0E0E85FFD4F94890E
:10078000890F80680C94060341E00E94B30281E067
:1007900090E00895FB0101900020E9F73197AF0147
:1007A000461B570BDC01ED91FC910280F381E02D9B
:1007B00009948F929F92AF92BF92EF92FF920F9304
:1007C0001F93CF93DF93CDB7DEB7A1970FB6F89401
:1007D000DEBF0FBECDBF7C01FA01CB0119A22230D2
:1007E00008F42AE08E010F5D1F4F822E912CB12C50
:1007F000A12CBF01A50194010E94CA06F901CA01FA
:100800006A300CF5605DD8016E938D01232B242B8B
:10081000252B79F790E080E0109721F0BD01C7010A
:100820000E94CA03A1960FB6F894DEBF0FBECDBFDB
:10083000DF91CF911F910F91FF90EF90BF90AF90FC
:100840009F908F900895695CDECFCF92DF92EF92F8
:10085000FF920F931F93CF93DF93EC016A017B010B
:10086000E881F9810190F081E02D6DE209958C011C
:1008700044275527BA014C195D096E097F092AE002
:10088000CE010E94D903800F911FDF91CF911F915C
:100890000F91FF90EF90DF90CF900895CF93DF936B
:1008A000AC01990F660B770B77FF10C08BE691E0D8
:1008B0000E942504EC016EE171E08BE691E00E945C
:1008C000CA038C0F9D1FDF91CF9108952AE08BE61C
:1008D00091E00E94D903EECFAB01770F660B770B47
:1008E00077FD0C9425042AE00C94D9031F920F92F3
:1008F0000FB60F9211242F933F934F935F936F93F3
:100900007F938F939F93AF93BF93EF93FF938BE668
:1009100091E00E940501FF91EF91BF91AF919F91EE
:100920008F917F916F915F914F913F912F910F9098
:100930000FBE0F901F9018951F920F920FB60F9237
:1009400011242F938F939F93EF93FF93E0917B015B
:10095000F0917C018081E0918101F091820182FD22
:100960001BC09081809184018F5F8F7320918501DE
:10097000821741F0E0918401F0E0E559FE4F958F38
:1009800080938401FF91EF919F918F912F910F9010
:100990000FBE0F901F9018958081F4CF1F920F9279
:1009A0000FB60F9211242F933F938F939F93AF9382
:1009B000BF938091630190916401A0916501B09112
:1009C00066013091620123E0230F2D3758F501961F
:1009D000A11DB11D20936201809363019093640176
:1009E000A0936501B09366018091670190916801C1
:1009F000A0916901B0916A010196A11DB11D80937A
:100A0000670190936801A0936901B0936A01BF9157
:100A1000AF919F918F913F912F910F900FBE0F90AB
:100A20001F90189526E8230F0296A11DB11DD2CF65
:100A3000EBE6F1E01382128288EE93E0A0E0B0E0F2
:100A400084839583A683B78384E091E09183808338
:100A500085EC90E09587848784EC90E09787868783
:100A600080EC90E0918B808B81EC90E0938B828B7B
:100A700082EC90E0958B848B86EC90E0978B868B54
:100A8000118E128E138E148EE8E0F2E01382128221
:100A900086E191E0918380838DE084838FEF85836D
:100AA0008CE086838BE087838AE0808789E081877A
:100AB00088E082871386148615861686178681E05D
:100AC0000C941403789484B5826084BD84B58160ED
:100AD00084BD85B5826085BD85B5816085BD809109
:100AE0006E00816080936E00109281008091810081
:100AF0008260809381008091810081608093810079
:100B0000809180008160809380008091B10084603A
:100B10008093B1008091B00081608093B00080919B
:100B20007A00846080937A0080917A00826080935A
:100B30007A0080917A00816080937A0080917A00B7
:100B4000806880937A001092C10084E00E941403B0
:100B500060E08EE00E94E001E0917B01F0917C0179
:100B600082E08083E0917701F09178011082E0913A
:100B70007901F0917A018FEC808310928301E091EA
:100B80007F01F091800186E08083E0917D01F0910A
:100B90007E01808180618083E0917D01F0917E0102
:100BA000808188608083E0917D01F0917E01808169
:100BB00080688083E0917D01F0917E0180818F7D4E
:100BC000808361E087E00E94E00161E086E00E94AE
:100BD000E00161E085E00E94E00161E083E00E94C5
:100BE000E00161E082E00E94E00110E480E0E82E94
:100BF00080E0F82E10937C0080917A0080648093CE
:100C00007A0080917A0086FDFCCF80917800C091B7
:100C10007900DC2FC82FC83CD1050CF04AC061E038
:100C200087E00E94940160E086E00E94940160E009
:100C300085E00E94940161E271E08BE691E00E9400
:100C4000CA03CE010E944E0460E080E00E94B5031A
:100C50006EE271E088E092E00E94CA0360E08AE000
:100C60000E94B503BE0188E092E00E946C0461E03E
:100C700081E00E94B50368E371E088E092E00E94A1
:100C8000CA0360E083E00E94940160E082E00E9479
:100C900094010E9436020E940C03E114F10409F44D
:100CA000A9CF0E94F100882309F4A4CF0E9400007C
:100CB000A1CFCE01885C910960E0853F914098F515
:100CC00087E00E94940161E086E00E94940160E068
:100CD00085E00E94940161E271E08BE691E00E9460
:100CE000CA03CE010E944E0460E080E00E94B5037A
:100CF0006EE271E088E092E00E94CA0360E08AE060
:100D00000E94B503BE0188E092E00E946C0461E09D
:100D100081E00E94B50365E471E088E092E00E9402
:100D2000CA0361E0AFCF87E00E94940160E086E0F3
:100D30000E94940161E085E00E94940161E271E00B
:100D40008BE691E00E94CA03CE010E944E0460E04F
:100D500080E00E94B5036EE271E088E092E00E94BC
:100D6000CA0360E08AE00E94B503BE0188E092E019
:100D70000E946C0461E081E00E94B50363E571E0CC
:100D800088E092E00E94CA0360E083E00E94940140
:100D900061E07CCFA1E21A2EAA1BBB1BFD010DC096
:100DA000AA1FBB1FEE1FFF1FA217B307E407F5071B
:100DB00020F0A21BB30BE40BF50B661F771F881FF7
:100DC000991F1A9469F760957095809590959B018D
:100DD000AC01BD01CF010895EE0FFF1F0590F49106
:080DE000E02D0994F894FFCF07
:100DE8000000000027018700B4007401E500C3007B
:100DF800D70000000000C40387006D026C020D0AD2
:100E0800005741544552204C4556454C3A007761AD
:100E18007472206C766C3A0077617472206C766C10
:100E2800206C6F770077617472206C766C206E6F1F
:100E3800726D0077617472206C766C2068696768DF
:020E48000000A8
:00000001FF
