:100000000C945D000C9485000C9485000C94850084
:100010000C9485000C9485000C9485000C9485004C
:100020000C9485000C9485000C9485000C9485003C
:100030000C9485000C9485000C9485000C9485002C
:100040000C946D030C9485000C9485000C94850031
:100050000C9485000C9485000C9485000C9485000C
:100060000C9485000C9485000000000024002700FB
:100070002A0000000000250028002B0004040404CE
:100080000404040402020202020203030303030342
:10009000010204081020408001020408102001021F
:1000A00004081020000000080002010000030407FB
:1000B0000000000000000000E70411241FBECFEF85
:1000C000D8E0DEBFCDBF11E0A0E0B1E0E2ECFCE0A3
:1000D00002C005900D92AE34B107D9F721E0AEE42D
:1000E000B1E001C01D92AF36B207E1F710E0CDE5F7
:1000F000D0E004C02197FE010E945906CC35D107FB
:10010000C9F70E94B7030C945F060C940000AF92ED
:10011000BF92CF92DF92EF92FF920F931F93CF93F4
:10012000DF936C017B018B01040F151FEB015E0156
:10013000AE18BF08C017D10759F06991D601ED91EB
:10014000FC910190F081E02DC6010995892B79F78A
:10015000C501DF91CF911F910F91FF90EF90DF903C
:10016000CF90BF90AF90089590E0FC01EC55FF4F09
:100170002491FC01E057FF4F3491FC01E458FF4FFC
:10018000E491EE23C9F0222339F0233001F1A8F4E1
:10019000213019F1223029F1F0E0EE0FFF1FEE5867
:1001A000FF4FA591B4918FB7F894EC91611126C0DF
:1001B00030953E233C938FBF08952730A9F0283017
:1001C000C9F0243049F7809180008F7D03C0809171
:1001D00080008F7780938000DFCF84B58F7784BDD8
:1001E000DBCF84B58F7DFBCF8091B0008F7780937C
:1001F000B000D2CF8091B0008F7DF9CF3E2BDACF07
:10020000CF93DF9390E0FC01E057FF4F2491845897
:100210009F4FFC0184918823D1F090E0880F991FB3
:10022000FC01E859FF4FA591B491FC01EE58FF4F36
:10023000C591D49161110EC09FB7F8948C91E22FB3
:10024000E0958E238C932881E223E8839FBFDF9182
:10025000CF9108958FB7F894EC91E22BEC938FBF78
:10026000F6CF3FB7F8948091530190915401A0913B
:100270005501B091560126B5A89B05C02F3F19F036
:100280000196A11DB11D3FBFBA2FA92F982F882716
:10029000BC01CD01620F711D811D911D42E0660FF1
:1002A000771F881F991F4A95D1F708958F929F92C3
:1002B000AF92BF92CF92DF92EF92FF920E943101F4
:1002C0004B015C0188EEC82E83E0D82EE12CF12C86
:1002D0000E943101681979098A099B09683E7340B7
:1002E00081059105A8F321E0C21AD108E108F108BF
:1002F00088EE880E83E0981EA11CB11CC114D104A5
:10030000E104F10429F7FF90EF90DF90CF90BF90C8
:10031000AF909F908F900895089590E080E00895A9
:100320008F929F92AF92BF920F931F93CF93DF93C1
:10033000CDB7DEB7A1970FB6F894DEBF0FBECDBF25
:1003400019A2423008F44AE08E010F5D1F4F842E3F
:10035000912CB12CA12CA50194010E943706E62F07
:10036000B901CA01EA3044F5E05DD801EE938D0190
:10037000232B242B252B79F790E080E0109769F050
:10038000FD0101900020E9F73197AF014A1B5B0B9B
:10039000BD0187E591E00E948700A1960FB6F89411
:1003A000DEBF0FBECDBFDF91CF911F910F91BF90E8
:1003B000AF909F908F900895E95CD7CFFC0101909A
:1003C0000020E9F73197AF01481B590BBC0187E5C5
:1003D00091E00C948700CF93DF93EC0160E08E8175
:1003E0000E94B40061E08E810E94B40060E08E81C2
:1003F0000E94B4008BE891E00197F1F7DF91CF9173
:100400000895CF92DF92EF92FF920F931F93CF93B5
:10041000DF936C017C0187E0E80EF11CD0E0C0E0C6
:10042000062F10E0B8010C2E02C0759567950A944E
:10043000E2F76170F70181917F010E94B40021967B
:10044000C430D10579F7C601DF91CF911F910F918B
:10045000FF90EF90DF90CF900C94EB01CF92DF9262
:10046000EF92FF920F931F93CF93DF93EC01F62E41
:10047000642F8C810E94B4008D818F3F19F060E061
:100480000E94B4000F2D10E08F8584FF25C06E01FF
:1004900087E0C80ED11CF12CE12CB8010E2C02C053
:1004A000759567950A94E2F76170F60181916F0185
:1004B0000E94B400FFEFEF1AFF0A88E0E816F1048B
:1004C00061F7CE01DF91CF911F910F91FF90EF90D7
:1004D000DF90CF900C94EB01B80184E0759567959F
:1004E0008A95E1F7CE010E9401026F2DCE01DF91C6
:1004F000CF911F910F91FF90EF90DF90CF900C94D0
:10050000010240E0682F87E591E00C942E0281E023
:100510000E9481028BE39FE10197F1F70895CF9349
:10052000DF93613029F090916601986090936601A5
:1005300060936A0110926B0190E490936C01809338
:100540006D01805C80936E0161E080915B010E948F
:10055000000180915C018F3F19F061E00E94000171
:1005600061E080915D010E940001C7E5D1E09E013C
:10057000275531408091660184FD0BC084E090E0F6
:1005800021962817390744F461E08E810E9400010A
:10059000EECF88E090E0F4CF8BE39DE00197F1F798
:1005A00060E080915B010E94B40060E080915D0199
:1005B0000E94B40080915C018F3F19F060E00E94BE
:1005C000B4008091660184FD34C063E087E591E06A
:1005D0000E940102CBE4D6E4CE010197F1F763E07B
:1005E00087E591E00E9401022197F1F763E087E53A
:1005F00091E00E94010283E592E00197F1F762E049
:1006000087E591E00E9401028091660180620E946C
:10061000810284E0809367018CE00E9481020E9445
:10062000870282E08093680186E0DF91CF910C948D
:10063000810280620E9481028BE496E40197F1F7C7
:100640008091660180620E94810283E592E00197B9
:10065000F1F78091660180620E948102D5CF90916E
:100660006A01691710F06FEF690FE62FF0E0E95AA1
:10067000FE4F9489890F80680C94810241E00E94AA
:100680002E0281E090E00895CF92DF92EF92FF92E8
:100690006C01990FEE08FF08F7FE16C041E06DE20D
:1006A00087E591E00E942E0266277727CB016C191F
:1006B0007D098E099F094AE00E9490010196FF90F2
:1006C000EF90DF90CF9008954AE0C701B601FF9008
:1006D000EF90DF90CF900C9490011F920F920FB685
:1006E0000F9211242F933F938F939F93AF93BF93B8
:1006F00080914F0190915001A0915101B091520110
:1007000030914E0123E0230F2D3758F50196A11D9E
:10071000B11D20934E0180934F0190935001A093FF
:100720005101B09352018091530190915401A091D5
:100730005501B09156010196A11DB11D8093530141
:1007400090935401A0935501B0935601BF91AF917E
:100750009F918F913F912F910F900FBE0F901F90FF
:10076000189526E8230F0296A11DB11DD2CF7894CB
:1007700084B5826084BD84B5816084BD85B58260A6
:1007800085BD85B5816085BD80916E008160809357
:100790006E001092810080918100826080938100C0
:1007A00080918100816080938100809180008160D0
:1007B000809380008091B10084608093B10080912B
:1007C000B00081608093B00080917A008460809353
:1007D0007A0080917A00826080937A0080917A001A
:1007E000816080937A0080917A00806880937A009B
:1007F0001092C10063E083E00E948F0261E08DE00F
:100800000E94000161E08CE00E94000161E089E04B
:100810000E94000161E088E00E94000161E08AE03E
:100820000E94000161E08BE00E94000161E081E034
:100830000E94000160E08EE00E94000110E4C0E030
:10084000D0E010937C0080917A00806480937A00DD
:1008500080917A0086FDFCCF8091780060917900CC
:10086000762F682F072E000C880B990B0E943E05EF
:100870002FE832EC45EF5EE30E94A2050E940605D8
:100880006B01CB0169327105ECF161E08DE00E94F2
:10089000B40060E08CE00E94B40060E089E00E9457
:1008A000B40061E088E00E94B40060E080E00E9453
:1008B0002F038CE091E00E94DE0160E08DE00E9459
:1008C0002F03C6010E94440361E080E00E942F03D1
:1008D00089E191E00E94DE0161E08AE00E94B400BB
:1008E00060E08BE00E94B40060E089E00E94B40008
:1008F0000E9456010E948702209709F4A2CF0E940D
:1009000000009FCF60E04E978CF58DE00E94B40010
:1009100060E08CE00E94B40060E089E00E94B400D6
:1009200060E088E00E94B40060E080E00E942F0355
:100930008CE091E00E94DE0160E08DE00E942F03D8
:10094000C6010E94440361E080E00E942F038AE216
:1009500091E00E94DE0161E081E00E94B40060E06D
:100960008AE00E94B40060E08BE0C0CF8DE00E947E
:10097000B40061E08CE00E94B40061E089E00E9474
:10098000B40060E088E00E94B40060E080E00E9473
:100990002F038CE091E00E94DE0160E08DE00E9478
:1009A0002F03C6010E94440361E080E00E942F03F0
:1009B0008AE391E00E94DE0161E08BE00E94B400D6
:1009C00060E08AE00E94B40060E081E08FCFE7E55C
:1009D000F1E01382128284E091E09183808387E0CA
:1009E00084838FEF858386E0868385E0878384E038
:1009F000808783E0818782E082871386148615864C
:100A00001686178661E080E10C948F020E940D0526
:100A10006894B1110C949C0508950E94810588F09A
:100A20009F5798F0B92F9927B751B0F0E1F0660FB2
:100A3000771F881F991F1AF0BA95C9F714C0B130F3
:100A400091F00E949B05B1E008950C949B05672FDF
:100A5000782F8827B85F39F0B93FCCF38695779522
:100A60006795B395D9F73EF490958095709561950B
:100A70007F4F8F4F9F4F0895E89409C097FB3EF436
:100A800090958095709561957F4F8F4F9F4F9923DB
:100A9000A9F0F92F96E9BB279395F6958795779559
:100AA0006795B795F111F8CFFAF4BB0F11F460FF19
:100AB0001BC06F5F7F4F8F4F9F4F16C0882311F071
:100AC00096E911C0772321F09EE8872F762F05C085
:100AD000662371F096E8862F70E060E02AF09A9520
:100AE000660F771F881FDAF7880F9695879597F915
:100AF000089557FD9058440F551F59F05F3F71F00E
:100B00004795880F97FB991F61F09F3F79F0879574
:100B10000895121613061406551FF2CF4695F1DFFD
:100B200008C0161617061806991FF1CF869571058D
:100B3000610508940895E894BB2766277727CB01C1
:100B400097F908950E94B5050C9426060E94180690
:100B500038F00E941F0620F0952311F00C940F0628
:100B60000C94150611240C949C050E94790570F3D1
:100B7000959FC1F3950F50E0551F629FF001729F42
:100B8000BB27F00DB11D639FAA27F00DB11DAA1F51
:100B9000649F6627B00DA11D661F829F2227B00D9E
:100BA000A11D621F739FB00DA11D621F839FA00D29
:100BB000611D221F749F3327A00D611D231F849F79
:100BC000600D211D822F762F6A2F11249F575040D0
:100BD0009AF0F1F088234AF0EE0FFF1FBB1F661F4B
:100BE000771F881F91505040A9F79E3F510580F014
:100BF0000C940F060C949C055F3FE4F3983ED4F3ED
:100C0000869577956795B795F795E7959F5FC1F7B7
:100C1000FE2B880F911D9695879597F9089597F962
:100C20009F6780E870E060E008959FEF80EC089592
:100C300000240A94161617061806090608950024BB
:100C40000A9412161306140605060895092E039435
:100C5000000C11F4882352F0BB0F40F4BF2B11F4A9
:100C600060FF04C06F5F7F4F8F4F9F4F0895A1E2D9
:100C70001A2EAA1BBB1BFD010DC0AA1FBB1FEE1F16
:100C8000FF1FA217B307E407F50720F0A21BB30B61
:100C9000E40BF50B661F771F881F991F1A9469F7DD
:100CA00060957095809590959B01AC01BD01CF0139
:100CB0000895EE0FFF1F0590F491E02D0994F8942C
:020CC000FFCF64
:100CC200000000003E0387008D018C0154454D5009
:100CD200455241545552453A0054454D50455241B2
:100CE2005455524520484947480054454D504552B5
:100CF2004154555245204C4F570054454D50455292
:0E0D02004154555245204E4F524D414C000079
:00000001FF
