:100000000C945D000C9485000C9485000C94850084
:100010000C9485000C9485000C9485000C9485004C
:100020000C9485000C9485000C9485000C9485003C
:100030000C9485000C9485000C9485000C9485002C
:100040000C9435040C9485000C9403040C94DD038B
:100050000C9485000C9485000C9485000C9485000C
:100060000C9485000C9485000000000024002700FB
:100070002A0000000000250028002B0004040404CE
:100080000404040402020202020203030303030342
:10009000010204081020408001020408102001021F
:1000A00004081020000000080002010000030407FB
:1000B00000000000000000007F0411241FBECFEFED
:1000C000D8E0DEBFCDBF11E0A0E0B1E0E2E3FCE0AC
:1000D00002C005900D92AE32B107D9F721E0AEE231
:1000E000B1E001C01D92AC3EB207E1F710E0CDE5F2
:1000F000D0E004C02197FE010E941106CC35D10743
:10010000C9F70E94C9040C9417060C940000AF9222
:10011000BF92CF92DF92EF92FF920F931F93CF93F4
:10012000DF936C017B018B01040F151FEB015E0156
:10013000AE18BF08C017D10759F06991D601ED91EB
:10014000FC910190F081E02DC6010995892B79F78A
:10015000C501DF91CF911F910F91FF90EF90DF903C
:10016000CF90BF90AF900895FC01538D448D252F03
:1001700030E0842F90E0821B930B541710F0CF9641
:10018000089501970895FC01918D828D981761F073
:10019000A28DAE0FBF2FB11D5D968C91928D9F5F8A
:1001A0009F73928F90E008958FEF9FEF0895FC0169
:1001B000918D828D981731F0828DE80FF11D858D1C
:1001C00090E008958FEF9FEF0895FC01918D228DAF
:1001D000892F90E0805C9F4F821B91098F73992734
:1001E000089587E391E00E94E50021E0892B09F45E
:1001F00020E0822F089580E090E0892B29F00E9472
:10020000F10081110C9400000895FC01A48DA80F49
:10021000B92FB11DA35ABF4F2C91848D90E0019648
:100220008F739927848FA689B7892C93A089B18968
:100230008C91837080648C93938D848D981306C009
:100240000288F389E02D80818F7D80830895EF926D
:10025000FF920F931F93CF93DF93EC0181E0888F80
:100260009B8D8C8D98131AC0E889F989808185FF50
:1002700015C09FB7F894EE89FF896083E889F989F2
:1002800080818370806480839FBF81E090E0DF91F4
:10029000CF911F910F91FF90EF900895F62E0B8D47
:1002A00010E00F5F1F4F0F731127E02E8C8D8E1102
:1002B0000CC00FB607FCFACFE889F989808185FF69
:1002C000F5CFCE010E940501F1CFEB8DEC0FFD2F94
:1002D000F11DE35AFF4FF0829FB7F8940B8FEA8924
:1002E000FB8980818062CFCFCF93DF93EC01888D33
:1002F0008823B9F0AA89BB89E889F9898C9185FDA1
:1003000003C0808186FD0DC00FB607FCF7CF8C912E
:1003100085FFF2CF808185FFEDCFCE010E940501E0
:10032000E9CFDF91CF91089590E0FC01EC55FF4FAC
:100330002491FC01E057FF4F3491FC01E458FF4F3A
:10034000E491EE23C9F0222339F0233001F1A8F41F
:10035000213019F1223029F1F0E0EE0FFF1FEE58A5
:10036000FF4FA591B4918FB7F894EC91611126C01D
:1003700030953E233C938FBF08952730A9F0283055
:10038000C9F0243049F7809180008F7D03C08091AF
:1003900080008F7780938000DFCF84B58F7784BD16
:1003A000DBCF84B58F7DFBCF8091B0008F778093BA
:1003B000B000D2CF8091B0008F7DF9CF3E2BDACF45
:1003C000CF93DF9390E0FC01E057FF4F24918458D6
:1003D0009F4FFC0184918823D1F090E0880F991FF2
:1003E000FC01E859FF4FA591B491FC01EE58FF4F75
:1003F000C591D49161110EC09FB7F8948C91E22FF2
:10040000E0958E238C932881E223E8839FBFDF91C0
:10041000CF9108958FB7F894EC91E22BEC938FBFB6
:10042000F6CF3FB7F8948091330190913401A091B9
:100430003501B091360126B5A89B05C02F3F19F0B4
:100440000196A11DB11D3FBFBA2FA92F982F882754
:10045000BC01CD01620F711D811D911D42E0660F2F
:10046000771F881F991F4A95D1F70895089590E046
:1004700080E00895CF93DF93EC0160E08E810E94CD
:10048000940161E08E810E94940160E08E810E945F
:1004900094018BE891E00197F1F7DF91CF910895F6
:1004A000CF92DF92EF92FF920F931F93CF93DF9340
:1004B0006C017C0187E0E80EF11CD0E0C0E0062F63
:1004C00010E0B8010C2E02C0759567950A94E2F70A
:1004D0006170F70181917F010E9494012196C430DF
:1004E000D10579F7C601DF91CF911F910F91FF9050
:1004F000EF90DF90CF900C943A02CF92DF92EF9280
:10050000FF920F931F93CF93DF93EC01F62E642F8E
:100510008C810E9494018D818F3F19F060E00E94D0
:1005200094010F2D10E08F8584FF25C06E0187E0B8
:10053000C80ED11CF12CE12CB8010E2C02C075950F
:1005400067950A94E2F76170F60181916F010E944C
:100550009401FFEFEF1AFF0A88E0E816F10461F753
:10056000CE01DF91CF911F910F91FF90EF90DF901F
:10057000CF900C943A02B80184E0759567958A95FE
:10058000E1F7CE010E9450026F2DCE01DF91CF9195
:100590001F910F91FF90EF90DF90CF900C9450023D
:1005A00040E0682F84ED91E00C947D02CF93DF93BF
:1005B000813029F09091E30198609093E30180935A
:1005C000E7011092E80180E48093E90180E18093E3
:1005D000EA0180E58093EB0161E08091D8010E94FF
:1005E000E0018091D9018F3F19F061E00E94E001A4
:1005F00061E08091DA010E94E001C4EDD1E09E014A
:10060000245D31408091E30184FD0BC084E090E0E3
:1006100021962817390744F461E08E810E94E00199
:10062000EECF88E090E0F4CF8BE39DE00197F1F707
:1006300060E08091D8010E94940160E08091DA012D
:100640000E9494018091D9018F3F19F060E00E94CF
:1006500094018091E30184FD39C063E084ED91E071
:100660000E945002CBE4D6E4CE010197F1F763E09B
:1006700084ED91E00E9450022197F1F763E084ED50
:1006800091E00E94500283E592E00197F1F762E069
:1006900084ED91E00E9450028091E30180620E940B
:1006A000D00284E08093E4018CE00E94D00281E0DB
:1006B0000E94D0028BE39FE10197F1F782E08093E3
:1006C000E50186E0DF91CF910C94D00280620E9418
:1006D000D0028BE496E40197F1F78091E301806208
:1006E0000E94D00283E592E00197F1F78091E30147
:1006F00080620E94D002D0CF41E00E947D0281E062
:1007000090E00895FB0101900020E9F73197AF01D7
:10071000461B570BDC01ED91FC910280F381E02D2B
:1007200009948F929F92AF92BF92EF92FF920F9394
:100730001F93CF93DF93CDB7DEB7A1970FB6F89491
:10074000DEBF0FBECDBF7C01FA01CB0119A2223062
:1007500008F42AE08E010F5D1F4F822E912CB12CE0
:10076000A12CBF01A50194010E94EF05F901CA0166
:100770006A300CF5605DD8016E938D01232B242B1C
:10078000252B79F790E080E0109721F0BD01C7019B
:100790000E948203A1960FB6F894DEBF0FBECDBFB4
:1007A000DF91CF911F910F91FF90EF90BF90AF908D
:1007B0009F908F900895695CDECF1F920F920FB6C5
:1007C0000F9211242F933F934F935F936F937F93D7
:1007D0008F939F93AF93BF93EF93FF9387E391E042
:1007E0000E940501FF91EF91BF91AF919F918F9171
:1007F0007F916F915F914F913F912F910F900FBE1D
:100800000F901F9018951F920F920FB60F92112400
:100810002F938F939F93EF93FF93E0914701F09174
:1008200048018081E0914D01F0914E0182FD1BC095
:100830009081809150018F5F8F73209151018217B9
:1008400041F0E0915001F0E0E95CFE4F958F80931C
:100850005001FF91EF919F918F912F910F900FBEBB
:100860000F901F9018958081F4CF1F920F920FB6B2
:100870000F9211242F933F938F939F93AF93BF9326
:1008800080912F0190913001A0913101B0913201FE
:1008900030912E0123E0230F2D3758F50196A11D2D
:1008A000B11D20932E0180932F0190933001A093CE
:1008B0003101B09332018091330190913401A091C4
:1008C0003501B09136010196A11DB11D8093330110
:1008D00090933401A0933501B0933601BF91AF914D
:1008E0009F918F913F912F910F900FBE0F901F906E
:1008F000189526E8230F0296A11DB11DD2CFE7E37C
:10090000F1E01382128288EE93E0A0E0B0E08483ED
:100910009583A683B78384E091E09183808385ECFF
:1009200090E09587848784EC90E09787868780ECB9
:1009300090E0918B808B81EC90E0938B828B82ECAA
:1009400090E0958B848B86EC90E0978B868B118E54
:10095000128E138E148EE4EDF1E01382128286E182
:1009600091E0918380838DE084838FEF85838CE099
:1009700086838BE087838AE0808789E0818788E0AF
:1009800082871386148615861686178681E00C9456
:10099000D602789484B5826084BD84B5816084BDBC
:1009A00085B5826085BD85B5816085BD80916E000D
:1009B000816080936E00109281008091810082603E
:1009C000809381008091810081608093810080917B
:1009D00080008160809380008091B100846080936A
:1009E000B1008091B00081608093B00080917A0066
:1009F000846080937A0080917A00826080937A008C
:100A000080917A00816080937A0080917A0080687A
:100A100080937A001092C10084E00E94D60260E0C8
:100A20008EE00E94E001E0914701F091480182E0F0
:100A30008083E0914301F09144011082E0914501EF
:100A4000F09146018FEC808310924F01E0914B01B1
:100A5000F0914C0186E08083E0914901F0914A01D8
:100A6000808180618083E0914901F0914A01808119
:100A700088608083E0914901F0914A01808180681B
:100A80008083E0914901F0914A0180818F7D8083CC
:100A900090E4B92E00E010E0B0927C0080917A00E2
:100AA000806480937A0080917A0086FDFCCF8091EB
:100AB0007800C0917900DC2FC82F6EE171E087E3E8
:100AC00091E00E9482036E010D2E000CEE08FF08DB
:100AD0002AE0B701A601D7FF0DC06DE287E391E0E0
:100AE0000E94270144275527BA014C195D096E0958
:100AF0007F092AE087E391E00E9491036BE271E0B5
:100B000087E391E00E948203E1E08091E701811197
:100B1000E0E0E195F0E0EC52FE4F848980680E94AD
:100B2000D0026EE171E084ED91E00E948203E091D9
:100B3000E701E23008F051C0E150F0E0EC52FE4F26
:100B400084898A5F80680E94D0022AE0B701A601EA
:100B5000D7FF0EC041E06DE284ED91E00E947D027E
:100B600044275527BA014C195D096E097F092AE00F
:100B700084ED91E00E9491030E9411022B013C013F
:100B800080EDC82E87E0D82EE12CF12C0E941102B6
:100B90006419750986099709683E734081059105B6
:100BA000A8F321E0C21AD108E108F10888EE480E46
:100BB00083E0581E611C711CC114D104E104F104CE
:100BC00029F70115110509F467CF0E94F100882368
:100BD00009F462CF0E9400005FCFE1E0AECFA1E256
:100BE0001A2EAA1BBB1BFD010DC0AA1FBB1FEE1FA7
:100BF000FF1FA217B307E407F50720F0A21BB30BF2
:100C0000E40BF50B661F771F881F991F1A9469F76D
:100C100060957095809590959B01AC01BD01CF01C9
:100C20000895EE0FFF1F0590F491E02D0994F894BC
:020C3000FFCFF4
:100C32000000000027018700B4007401E500C30032
:100C4200D700000000007C038700370236025741BC
:0E0C5200544552204C4556454C3A000D0A00C0
:00000001FF
