:100000000C9461000C9473000C9473000C947300B6
:100010000C9473000C9473000C9473000C94730094
:100020000C9473000C9473000C9473000C94730084
:100030000C9473000C9473000C9473000C94730074
:100040000C941A010C9473000C9473000C947300BC
:100050000C9473000C9473000C9473000C94730054
:100060000C9473000C947300000000002300260021
:10007000290000000008000201000003040700003E
:1000800000000000000000000000250028002B00F8
:1000900000000000240027002A00040404040404D3
:1000A0000404020202020202030303030303010227
:1000B00004081020408001020408102001020408F6
:1000C000102011241FBECFEFD8E0DEBFCDBF21E04E
:1000D000A0E0B1E001C01D92A930B207E1F70E9493
:1000E00064010C9430020C94000090E0FC01EE5886
:1000F000FF4F2491FC01E255FF4F3491FC01E6567D
:10010000FF4FE491EE23C1F1222339F02330E9F0CF
:1001100090F4213001F1223011F1F0E0EE0FFF1FD9
:10012000E859FF4FA591B491EC91E32381E090E071
:1001300029F580E008952730A9F02830C9F024304F
:1001400061F7809180008F7D03C0809180008F7760
:1001500080938000E2CF84B58F7784BDDECF84B5F5
:100160008F7DFBCF8091B0008F778093B000D5CF8B
:100170008091B0008F7DF9CF80E090E008953FB787
:10018000F8948091050190910601A0910701B0912A
:10019000080126B5A89B05C02F3F19F00196A11DA7
:1001A000B11D3FBFBA2FA92F982F8827BC01CD01C1
:1001B000620F711D811D911D42E0660F771F881F20
:1001C000991F4A95D1F708958F929F92AF92BF924F
:1001D000CF92DF92EF92FF920E94BF004B015C0131
:1001E00088EEC82E83E0D82EE12CF12C0E94BF00AF
:1001F000681979098A099B09683E73408105910550
:10020000A8F321E0C21AD108E108F10888EE880EAF
:1002100083E0981EA11CB11CC114D104E104F104B7
:1002200029F7FF90EF90DF90CF90BF90AF909F9015
:100230008F9008951F920F920FB60F9211242F9353
:100240003F938F939F93AF93BF93809101019091C0
:100250000201A0910301B09104013091000123E05B
:10026000230F2D3758F50196A11DB11D20930001D4
:100270008093010190930201A0930301B0930401C4
:100280008091050190910601A0910701B0910801AC
:100290000196A11DB11D8093050190930601A093C5
:1002A0000701B0930801BF91AF919F918F913F914A
:1002B0002F910F900FBE0F901F90189526E8230FD7
:1002C0000296A11DB11DD2CF789484B5826084BD01
:1002D00084B5816084BD85B5826085BD85B581604A
:1002E00085BD80916E00816080936E0010928100C8
:1002F0008091810082608093810080918100816083
:100300008093810080918000816080938000809143
:10031000B10084608093B1008091B00081608093CF
:10032000B00080917A00846080937A0080917A0096
:10033000826080937A0080917A00816080937A0055
:1003400080917A00806880937A001092C10030E03A
:1003500020E0F901E255FF4F4491F901E656FF4FC5
:100360008491882399F090E0880F991FFC01E05751
:10037000FF4FA591B491FC01EA57FF4F85919491ED
:100380008FB7F894EC91E42BEC938FBF2F5F3F4F26
:1003900027303105F1F6CFE3D6E01BE50FE446E662
:1003A000942E5DE6852E60E0E62E60E0F62E8DE769
:1003B000782E97E0692E2FE7522E3FE6432E8CE0F1
:1003C0000E9475005C018DE00E9475006C01AA948A
:1003D000AB28F1F4CBB90E94E400DBB90E94E40041
:1003E0001BB90E94E4000BB90E94E4009BB80E9474
:1003F000E4008BB80E94E4007BB80E94E4006BB874
:100400000E94E4005BB80E94E4004BB80E94E40044
:10041000CA94CD28D9F44BB80E94E4005BB80E947E
:10042000E4006BB80E94E4007BB80E94E4008BB843
:100430000E94E4009BB80E94E4000BB90E94E40013
:100440001BB90E94E400DBB90E94E400CBB90E9412
:10045000E400E114F10409F4B2CF0E940000A7CF38
:04046000F894FFCF3E
:00000001FF
